:100000000C9433000C9450000C9450000C9450004D
:100010000C9450000C9450000C9450000C94500020
:100020000C9450000C9450000C9450000C94500010
:100030000C9450000C9450000C9450000C94500000
:100040000C9450000C9450000C9450000C945000F0
:100050000C9450009D009100850079006D007300A4
:100060007F008B00970011241FBECFE5D4E0DEBFD8
:10007000CDBF10E0A0E6B0E0E8E5F3E002C00590F7
:100080000D92A23BB107D9F720E0A2EBB0E001C08E
:100090001D92AC3BB207E1F70E9497010C94AA01B4
:1000A0000C94000067B986B1806486B9349BFECF9A
:1000B00086B1806186B984B195B1089518BA12BA33
:1000C0000895E091B800F091B9003496E930F10557
:1000D000C8F5E65DFF4F0C94A401FC01EF55FF4FFE
:1000E000808182BB0895FC01E756FF4F808182BB6F
:1000F0000895FC01EF56FF4F808182BB0895FC01FB
:10010000E757FF4F808182BB0895FC01EF57FF4FF7
:10011000808182BB0895FC01E758FF4F808182BB3C
:100120000895FC01EF58FF4F808182BB0895FC01C8
:10013000E759FF4F808182BB0895FC01EF59FF4FC3
:10014000808182BB0895CF93DF93C0E0D0E0C830B8
:10015000D10584F4FE01E755FF4F808188BBCE01B5
:100160000E94610083EF91E00197F1F700C0000069
:100170002196EDCF0E945E00DF91CF91089580918E
:100180006000882391F08091BA009091BB00909319
:10019000B5008093B4008091B6009091B700909321
:1001A000B3008093B2001092600008958091BA006D
:1001B0009091BB002091B4003091B5008217930755
:1001C00081F46091B6007091B7004091B2005091F7
:1001D000B3006417750729F41092B9001092B800A3
:1001E0000895803243E0940794F06091B6007091D6
:1001F000B7004091B2005091B3006417750739F40D
:1002000081E090E09093B9008093B8000895803227
:1002100063E0960774F04091B6005091B700403209
:1002200053403CF083E090E09093B9008093B80095
:100230000895803243E0940774F04091B6005091E5
:10024000B700413851053CF48CEF9FEF9093B90013
:100250008093B80008958038910594F46091B600B9
:100260007091B7004091B2005091B30064177507C8
:1002700039F48FEF9FEF9093B9008093B800089501
:100280008038910574F44091B6005091B700403821
:1002900051053CF48DEF9FEF9093B9008093B80027
:1002A00008954091B6005091B700403263E0560780
:1002B00054F0803891053CF484E090E09093B900CC
:1002C0008093B8000895403263E0560754F08217D7
:1002D000930739F482E090E09093B9008093B800DE
:1002E0000895413851054CF48217930731F48EEF8D
:1002F0009FEF9093B9008093B800089563E480E085
:100300000E9452009093BB008093BA0064E480E0A6
:100310000E9452009093B7008093B6000E94BF00E5
:1003200080916000811102C00E94D60008958FEF75
:1003300087BB81BB1ABA80E487B987E886B90E9477
:100340007E010E94A300FBCFEE0FFF1F0590F491EA
:08035000E02D0994F894FFCFA1
:1003580001000000000000C0C0030300000000000E
:10036800000000000000000303C0C00000000000FF
:100378000000000000000018181818000000000015
:10038800000000000303000000000000C0C00000DF
:10039800000000001818000000FEFDFBF7EFDFBFAB
:0203A8007F00D4
:00000001FF
