:020000020000FC
:100000000FE50DBF0FE50DBF0FEF07BB00E001BB14
:1000100011E018BB819B0C94100020E00C940A00A6
:10002000203011F00C940A0021E080990C943700E4
:100030000C941C000C940A00B0990C9434000C949D
:10004000240018BB0C940A00B7990C9431000C944E
:100050002B000C94210017950C94210011E00C94B6
:10006000210017950C94210010E80C942100B09900
:100070000C944F000C943F0018BB0C940A00B799E5
:100080000C9449000C9446000C943C00111F0C94F5
:100090003C0011E00C943C0017950C943C0012E0DD
:0400A0000C943C0080
:00000001FF
