:020000020000FC
:100000000FE50DBF04E00EBF0FEF07BB00E001BB23
:10001000819B0C940E0050E00C940800503011F0BD
:100020000C94080051E080990C941A000C944C0038
:100030000C940800B0990C942000C09A0C9408000D
:10004000B1990C942600C19A0C940800B2990C94B2
:100050002C00C29A0C940800B3990C943200C39AF5
:100060000C940800B4990C943800C49A0C940800BD
:10007000B5990C943E00C59A0C940800B6990C945E
:100080004400C69A0C940800B7990C940800C79ACB
:100090000C9408000C940800B79B0C945200C7986D
:1000A0000C940800B69B0C945800C6980C94080059
:1000B000B59B0C945E00C5980C940800B49B0C94FE
:1000C0006400C4980C940800B39B0C946A00C39815
:1000D0000C940800B29B0C947000C2980C94080019
:1000E000B19B0C947600C1980C940800B09B0C94C2
:0C00F0000800C0980C9408000C94080054
:00000001FF
