:020000020000FC
:100000000FE50DBF04E00DBF0FEF0ABB0CEF01BB06
:10001000809B0C941200819B0C94300000E00BBB81
:100020000C9408000FE40BBBC79A2FEE32E000C01F
:1000300022BF33BF28B720FFFDCF40E043BF51E0D0
:1000400058BF2FEE32E000C022BF33BF28B720FFD9
:10005000FDCF40E043BF51E058BFC7980C94080063
:100060000BE50BBBC79A24EE32E000C022BF33BFC2
:1000700028B720FFFDCF40E043BF51E058BF24EE3A
:1000800032E000C022BF33BF28B720FFFDCF40E0E1
:0C00900043BF51E058BFC7980C94080013
:00000001FF
