S01700004763634170706C69636174696F6E312E737265635B
S11300000C942A000C9447000C9447000C9447006D
S11300100C9447000C9447000C9447000C94470040
S11300200C9447000C9447000C9447000C94470030
S11300300C9447000C9447000C9447000C94470020
S11300400C9447000C9447000C9447000C94470010
S11300500C94470011241FBECFE5D4E0DEBFCDBF12
S113006010E0A0E6B0E0EEE7F2E002C005900D92E9
S1130070AA38B107D9F720E0AAE8B0E001C01D9280
S1130080AC38B207E1F70E94A9000C943D010C942E
S1130090000087EE93E00197F1F700C0000018BA62
S11300A012BA089520918A0030918B0021153105F0
S11300B031F4FC01E758FF4F808182BB0895213061
S11300C0310531F4FC01EF58FF4F808182BB089564
S11300D02230310531F4FC01E759FF4F808182BBA6
S11300E008952330310529F4FC01EF59FF4F808135
S11300F082BB0895EF92FF920F931F93CF93DF93E8
S11301007C011092600000E010E00E151F05D4F48D
S1130110C0E0D0E0C830D10584F4FE01EF57FF4FB2
S1130120808188BBCE010E94520083EF91E0019749
S1130130F1F700C000002196EDCF0E9449000F5F47
S11301401F4FE3CFDF91CF911F910F91FF90EF905D
S113015008958FEF87BB81BB1ABAC9991BC0C9998F
S1130160FCCF80918A0090918B0004972CF0109220
S11301708B0010928A00F3CF8AE090E00E947A000C
S113018080918A0090918B00019690938B008093CC
S11301908A00E5CFC8991DC0C899DFCF80918A0035
S11301A090918B0099233CF483E090E090938B0032
S11301B080938A00F1CF8AE090E00E947A008091D7
S11301C08A0090918B00019790938B0080938A0012
S11301D0E3CFCA9909C010928B0010928A0081E083
S11301E090E00E947A00B9CFCB9909C081E090E0F9
S11301F090938B0080938A000E947A00AECFCC99B2
S11302000BC082E090E090938B0080938A0081E0A1
S113021090E00E947A00A1CFCD990BC083E090E0DA
S113022090938B0080938A0081E090E00E947A0092
S113023094CF80916000811190CF80918A00909139
S11302408B0099233CF483E090E090938B0080939F
S11302508A0006C0049724F010928B0010928A0042
S113026081E090E00E947A0081E090E00E947A00B0
S111027081E090E00E947A0070CFF894FFCFF6
S113027E01002060FFFF60200018181818187E3C3B
S113028E18000406FFFF060400183C7E1818181800
S10D029E18FEFDFBF7EFDFBF7F0041
S9030000FC
