S01700004763634170706C69636174696F6E312E737265635B
S11300000C942A000C9447000C9447000C9447006D
S11300100C9447000C9447000C9447000C94470040
S11300200C9447000C9447000C9447000C94470030
S11300300C9447000C9447000C9447000C94470020
S11300400C9447000C9447000C9447000C94470010
S11300500C94470011241FBECFE5D4E0DEBFCDBF12
S113006010E0A0E6B0E0EEE2F4E002C005900D92EC
S1130070A636B107D9F720E0A6E6B0E001C01D928C
S1130080AB36B207E1F70E945C010C9415020C94A4
S113009000009AB397609ABB9AB398679ABB9BB3D4
S11300A09D7F9BBB662321F09BB391609BBB03C0E8
S11300B09BB39E7F9BBB9BB394609BBB9BB3977886
S11300C09BBB83FF03C09BB390649BBB82FF03C0B5
S11300D09BB390629BBB81FF03C09BB390619BBBAE
S11300E080FF03C08BB388608BBB00C000C00000DE
S11300F08BB38B7F8BBB0895CF93DF93C82FD62F01
S113010090E095958795959587959595879595957F
S113011087950E9449006D2F8C2F0E944900DF9122
S1130120CF91089589EF90E00197F1F700C00000A6
S113013080E008950E9492008111FCCF60E082E08B
S11301400E9449000E9492008111FCCF60E088E285
S11301500E947C000E9492008111FCCF60E08FE03D
S11301600E947C000E9492008111FCCF60E086E036
S11301700E947C000895CF93C82F0E9492008111A1
S1130180FCCF60E08C2F8C600E947C00CF9108959E
S11301900E9492008111FCCF60E081E00E947C000B
S11301A00895CF93DF93D82FC62F0E949200811118
S11301B0FCCF8C2F90E4D99F800D112460E08068DF
S11301C00E947C00DF91CF9108950F931F93CF93EA
S11301D0DF93EC018881882369F00E9492008111E9
S11301E0FCCF8E010F5F1F4F61E088810E947C006D
S11301F0E801F0CFDF91CF911F910F910895E6E6CA
S1130200F0E01482138212821182108281B3826020
S113021081BB82B38D7F82BB8BE49DE10197F1F7B3
S113022000C0000082B3826082BB9DE09A95F1F722
S1130230000081B38D7F81BB819935C02AE12A9565
S1130240F1F700C0819B32C08199FECF60E070E07D
S11302506530710570F5FB01EA59FF4F108280E0AB
S113026090E088309105E0F4819BFECF2AE02A9546
S1130270F1F7819B11C047E050E0481B590B21E086
S113028030E002C0220F331F4A95E2F7FB01EA591E
S1130290FF4F3081232B20838199FECF0196E1CF3C
S11302A06F5F7F4FD5CF80E090E0089580E090E0CD
S11302B0089581E090E00895CF93DF93CDB7DEB742
S11302C066970FB6F894DEBF0FBECDBF0E949A00AA
S11302D00E94C80080E00E94BB0060E080E00E94B1
S11302E0D10080E690E00E94E50060E081E00E9499
S11302F0D10083E690E00E94E5002FE38DE093E0D7
S1130300215080409040E1F700C000000E94FF00AF
S11303100E94C80060E080E00E94D10080E690E086
S11303200E94E50060E081E00E94D10083E690E055
S11303300E94E50006E610E0F80180814AE0BE0173
S11303406F5F7F4F082E000C990B0E94E00162E062
S113035080E00E94D100CE0101960E94E50085E272
S113036090E09F838E83CE0106960E94E500F801FB
S113037082814AE0BE016F5F7F4F082E000C990B0B
S11303800E94E00162E081E00E94D100CE0101966A
S11303900E94E50061E08FED0E947C0083E490E020
S11303A09F838E83CE0106960E94E500FFE72AE133
S11303B086E0F15020408040E1F700C000009DCF6E
S11303C0BB274A3031F4992322F4BDE290958195FC
S11303D09F4F0C94EC01BB27FB015527AA27880FDC
S11303E0991FAA1FA41710F0A41B83955051B9F7A5
S11303F0A05DAA3308F0A95DA193009779F7B11124
S1130400B1931192CB010C940502DC01FC01672F1E
S113041071917723E1F7329704C07C916D937083D7
S11104206291AE17BF07C8F30895F894FFCF9A
S109042E483D00543D00AE
S9030000FC
