:020000020000FC
:0200000022C01C
:10004400FDC114E01EBF0FE50DBF0CEF07BB0DEFA4
:1000540000B9789460E30E9419020E94410260E3AF
:100064000E9419020E94410260E30E9419020E9448
:10007400410260E20E9419020E94410260E20E9471
:1000840019020E94410260EC0E9419020E9441027E
:1000940060E00E9419020E94410260E80E94190275
:1000A4000E94410260E00E9419020E94410260E144
:1000B4000E9419020E94410260E00E9419020E94FB
:1000C400410260E60E9419020E94410260E00E941F
:1000D40019020E94410260EF0E9419020E9441022B
:1000E40060E00E9419020E94410260E10E9419022C
:1000F4000E94410260E40E9412020E94410260E3F5
:100104000E9412020E94410260E40E9412020E94B4
:10011400410260E80E9412020E94410260E40E94CF
:1001240012020E94410260EF0E9412020E944102E8
:1001340060E40E9412020E94410260EF0E941202D7
:100144000E94410260E50E9412020E94410260E3A3
:100154000E9412020E94410260E40E9412020E9464
:10016400410260E50E9412020E94410260EA0E947C
:1001740012020E94410260E00E9412020E944102A7
:1001840060E40E9412020E94410260E80E9412028E
:100194000E94410260E40E9412020E94410260EC4B
:1001A4000E9412020E944102B09B0E941C01B19B5A
:1001B4000E94280160E0E0FFF7CF60E00E9419028E
:1001C4000E9441020E94410260E10E9419020E94C1
:1001D40041020E94410202C045C0B3C0E330E1F3D2
:1001E400E530D9F3FBCFE330B9F0E530E1F0B09975
:1001F400FACFB19B01C0F7CF60E00E9419020E94C0
:1002040041020E94410260E10E9419020E944102DF
:100214000E944102E0E06ECFC39A0E944102C3985B
:100224000E944102E2CFC49A0E944102C4980E94F3
:100234004102DDCFE3E060E30E9412020E9441022A
:1002440060E10E9412020E9441020895E5E060E329
:100254000E9412020E94410260E20E9412020E9465
:100264004102089560E40E9412020E94410260E388
:100274000E9412020E94410260E40E9412020E9443
:10028400410260E80E9412020E94410260E40E945E
:1002940012020E94410260EF0E9412020E94410277
:1002A40060E40E9412020E94410260EF0E94120266
:1002B4000E94410260E50E9412020E94410260E332
:1002C4000E9412020E94410260E40E9412020E94F3
:1002D400410260E50E9412020E94410260E40E9411
:1002E40012020E94410260E40E9412020E94410232
:1002F40060EA0E9412020E94410260E00E9412021F
:100304000E94410260E40E9412020E94410260E8DD
:100314000E9412020E94410260E40E9412020E94A2
:10032400410260EC0E9412020E94410260E30E94BA
:1003340012020E94410260E10E9412020E944102E4
:1003440052CF60E40E9412020E94410260E30E94C4
:1003540012020E94410260E40E9412020E944102C1
:1003640060E80E9412020E94410260E40E941202AC
:100374000E94410260EF0E9412020E94410260E466
:100384000E9412020E94410260EF0E9412020E9427
:10039400410260E50E9412020E94410260E30E9451
:1003A40012020E94410260E40E9412020E94410271
:1003B40060E50E9412020E94410260E40E9412025F
:1003C4000E94410260E40E9412020E94410260EA1B
:1003D4000E9412020E94410260E00E9412020E94E6
:1003E400410260E40E9412020E94410260E80E94FD
:1003F40012020E94410260E40E9412020E94410221
:1004040060EC0E9412020E94410260E30E94120208
:100414000E94410260E20E9412020E944102E3CE65
:1004240065601FD02CD06B7F1CD029D008956460E8
:1004340018D025D06B7F15D022D00895F89401B13F
:10044400087F083059F0003149F0083121F00832B2
:1004540059F078941895062F0AD0FBCF0EE407D0F4
:10046400F8CF05EA06BF089504E106BFF2CF03B949
:1004740005E806BF08952EEE31E00C94490298EC8D
:10048400A5E00C94490221E035E00C94490292BFA6
:10049400A3BF98B790FFFDCFA0E0A3BFB1E0B8BF62
:0204A4000895B9
:00000001FF
