:020000020000FC
:020000001CC022
:020004002FC00B
:1000380018C00FE50DBF04E00EBF00E00ABB0FEFCC
:1000480007BB00E40BBF00E005BF0BEF06B900E2F9
:1000580007B9789461E078940C942F000C944300CD
:10006800189515B1193A18F40C9440001895613098
:1000780099F00C9455001895C698C798189560E0A3
:10008800B69B0C944B00C698C79A0C94340061E058
:10009800C69AC79A0C94490061E0C69AC79A0C940C
:0C00A8003F0060E0C698C79A0C943F002F
:00000001FF
