:020000020000FC
:100000000FEF0ABB1FE311BB0FE50DBF04E00EBFEE
:1000100070E072BB0E94430178E272BB0E94430110
:1000200078E272BB0E9443017FE37BBB0E943F01E9
:100030000E94430170E47BBB0E943F010E94430188
:1000400078EB7BBB0E943F010E9443010E94430169
:1000500070EC7BBB0E943F010E94430178E272BBBF
:1000600078EB7BBB0E943F0179E272BBF2E0E6E9EC
:1000700030E405910BBB0E943F013A95D1F778E23D
:1000800072BB79EB7BBB0E943F0179E272BBF2E06D
:10009000E6ED30E405910BBB0E943F013A95D1F7A4
:1000A00078E272BB7AEB7BBB0E943F0179E272BBC4
:1000B000F3E0E6E130E405910BBB0E943F013A9585
:1000C000D1F778E272BB7BEB7BBB0E943F0179E208
:1000D00072BBF3E0E6E530E405910BBB0E943F0103
:1000E0003A95D1F778E272BB7CEB7BBB0E943F0173
:1000F00079E272BBF3E0E6E930E405910BBB0E94C4
:100100003F013A95D1F778E272BB7DEB7BBB0E9451
:100110003F0179E272BBF3E0E6ED30E405910BBB01
:100120000E943F013A95D1F778E272BB7EEB7BBB30
:100130000E943F0179E272BBF4E0E6E130E4059110
:100140000BBB0E943F013A95D1F778E272BB7FEB7F
:100150007BBB0E943F0179E272BBF4E0E6E530E44C
:1001600005910BBB0E943F013A95D1F770E372BB3A
:1001700078EB7BBB0E943F0171E372BBF4E0E6E9E0
:1001800030E405910BBB0E943F013A95D1F770E333
:1001900072BB79EB7BBB0E943F0171E372BBF4E061
:1001A000E6ED30E405910BBB0E943F013A95D1F793
:1001B00070E372BB7AEB7BBB0E943F0171E372BBC1
:1001C000F5E0E6E130E405910BBB0E943F013A9572
:1001D000D1F770E372BB7BEB7BBB0E943F0171E305
:1001E00072BBF5E0E6E530E405910BBB0E943F01F0
:1001F0003A95D1F770E372BB7CEB7BBB0E943F0169
:1002000071E372BBF5E0E6E930E405910BBB0E94B7
:100210003F013A95D1F770E372BB7DEB7BBB0E9447
:100220003F0171E372BBF5E0E6ED30E405910BBBF5
:100230000E943F013A95D1F770E372BB7EEB7BBB26
:100240000E943F0171E372BBF6E0E6E130E4059104
:100250000BBB0E943F013A95D1F770E372BB7FEB75
:100260007BBB0E943F0171E372BBF6E0E6E530E440
:1002700005910BBB0E943F013A95D1F7FFCF929AAF
:1002800000009298089513E426EC2A95F1F71A9548
:10029000D9F70000089500F8F8F8FCF8E0F8E2FC5F
:1002A000F4FAF8FCF8FCFCFEFEFFFFFFFFFFF3E5AD
:1002B000E1E0E0F0F0F0F0F0F0F0F0F0F0F0F0F06D
:1002C000F0F0F0F0F0F0F0F0F0E0E0E0E0C000007E
:1002D00000000000000000FFFFFFFFFFFFFFFFFF27
:1002E000FFFFFFFFFFFFFFFFFFFFFFFFFFFFFFFF1E
:1002F000FFFFFFFFFFFFFFFFFFFFFDFFFFFDFDFF14
:10030000FFFFFFFFFFFFFFFFFFFFFF3F3F1F0D0846
:10031000000000000000A5FFFFFFFFFFFFFFFFFF41
:10032000FFFFFFFFFFFFFFFFFFFFFFFFFFFFFFFFDD
:10033000FFFFFF3F1F0F0F0F0F0F0707070707CF25
:10034000EFFFFFFFFFFFFFFFFFFFFFFFFEFCFCFCD7
:10035000FCF8FCFCFCFCFEFFFFFFFFFFFFFFFFFFC4
:10036000FFFFFFFFFFFFFFFFFFFFFFFFFFFFFFFF9D
:10037000FFFDE4F4F0F0F4E4FCF0F0F8F8F8FCFD34
:10038000FFFFFFFFFFFFFFFFFFFFFFFFFFFFFFFF7D
:10039000FFFFFFFFFFFFFFFFFFFFFFFFFFFFFFFF6D
:1003A000FFFFFFFFFFFFFFFFFFFFFFFFFFFFFFFF5D
:1003B000FFFFFFFFFFFFFFFFFFFFFFFFFFFFFFFF4D
:1003C000FFFFFFFFFFFFFFFFFFFFFFFFFFFFFFFF3D
:1003D000FFFFFFFFFFFFFFFFFFFFFFFFFFFFFFFF2D
:1003E000FFFFFFFFFFFFFFFFFFFFFFFFFFFFFFFF1D
:1003F000FFFFFFFFFFFFFFFFFFFFFFFFFFFFFFFF0D
:10040000FFFFFFFFFFFFFFFFFFFFFFFFFFFFFFFFFC
:10041000FFFFFFFFFFFFFFFFFFFFFFFFFFFFFFFFEC
:10042000FFFFFFFFFFFFFFFFFFFFFFFF7F3F3F3F9C
:100430009F9F9F9F9F9F9F3F3F3F7FFFFFFFFFFF2C
:10044000FFFFFFFFFFFFFFFFFFFFFFFFFFFFFFFFBC
:10045000FFFFFFFFFFFFFFFFFFFFFFFFFFFFFFFFAC
:10046000FFFFFFFFFFFFFFFFFFFFFFF0E0C0C08FB8
:100470009F9FBFBFBFBF9F8FC0C0E0F0FFFFFEFECA
:10048000FEFEFE80808080FEFEFEFEFFFFFF80807D
:100490008080B6B6B6B62060E0E0E0F0F0F0F0F8AC
:1004A000F0F0F8F8F8F8F8F8F8F8F0F0F0F0F0F00C
:1004B000F0F0F0F0F0F0F0F0E0E1D1C3C3EFEFFFC7
:1004C000FFFFFFFFFFFFFFFFFFFFFFFFFFFFFFFF3C
:1004D000FFFFFFFFFFFF0000303EFFFFFFFFFFFFBA
:1004E000FFFFFFFFFFFFFFFFFFFFFFFFFFFFFFFF1C
:1004F000FFFFFFFFFFFFFFFFFFFFFFFFFFFFFFFF0C
:10050000FFFFFFFFFFFFFFFFFFFFFFFFFFFFFFFFFB
:10051000FFFFFFFFFFFFFEFEFEFEFDFFFFFFFFFEF2
:10052000F8F1E0C10101010303030307070707070F
:10053000070707070707070707070707070707074B
:100540003F7FFFFFFFFFFFFFFFFFFFFFFFFFFFFFFB
:10055000FFFFFFFFFFFFFFFFFFFFFFFFFFFFFFFFAB
:10056000FFFFFFFFFCFCFCFCF8F8F0F0E0F0F0E02F
:10057000E0E0C000000000000000000000000000FB
:1005800006FEFFFFFFFFFFFFFFFFFFFFFFFFFFFF75
:10059000FFFFFFFFFFFFFFFFFFFFFFFFFFFFFFFF6B
:1005A000FFFFFFFFFFFFFFFFFF7FFFFF7FFFFFFF5B
:1005B000FFFFFFFFF0F0F0E0F0FCFCFCFCFCFFFFB5
:1005C000FFFFFFFFFFFFFFFFFFFFFFFFFFFFFFFF3B
:1005D000FFFFFFFFFFFFFFFFFFFFFFFFFFFFFFFF2B
:1005E000FFFFFBFDFDFCFDFCFEFCFDFBFBFDF9FB45
:1005F000FEFFFFFFFFFFFFFFFFFFFFFFFFFFFFFF0C
:10060000FFFFFFFFFFFFFFFFFFFFFFFFFFFFFFFFFA
:10061000FFFFFFFFFFFFFFFFFFFFFFFFFFFFFFFFEA
:10062000FFFFFFFFFFFFFFFFFFFFFFFFFFFFFFFFDA
:10063000FFFFFFFFFFFFFFFFFFFFFFFFFFFFFFFFCA
:10064000FFFFFFFFFFFFFFFFFFFFFFFFFFFFFFFFBA
:10065000FFFFFFFFFFFFB08080C9CFFFFFCD858484
:1006600084B6B6B6B6D4C08081FFFFFFBF9F80803E
:10067000C0E0FEFEFEFE80808080FFFFFFFFFFFFE8
:10068000FFFFFFFFFFFFFFFFFFFFFFFFFFFFFFFF7A
:06069000FFFFFFFFFFFF6A
:00000001FF
