:020000020000FC
:100000000FE50DBF04E00EBF0FEF01BB02EA0FBD0D
:100010000AE10EBD09E007BD03EC06BD01E017E4EF
:100020000E941F0000E01FEA0E941F0000E01DE781
:100030000E941F0000E01BE40E941F00EFCF0E94FF
:1000400024000E94290018950BBD1ABD09BD18BDDA
:1000500018955FEF4FEF4A95F1F75A95D9F75FEF93
:100060004FEF4A95F1F75A95D9F75FEF4FEF4A9561
:10007000F1F75A95D9F75FEF4FEF4A95F1F75A9597
:10008000D9F75FEF4FEF4A95F1F75A95D9F75FEF40
:100090004FEF4A95F1F75A95D9F75FEF4FEF4A9531
:1000A000F1F75A95D9F75FEF4FEF4A95F1F75A9567
:1000B000D9F75FEF4FEF18954A95F1F75A95D1F7B9
:00000001FF
