:020000020000FC
:0200000002C03C
:1000040017C014E01EBF0FE50DBF0FEF07BB00E0E4
:1000140001BB00E40BBF00E405BF789400E00030AE
:10002400E9F0053011F10A3039F10F3061F1F7CF01
:100034000E9422000395189598ECA5E00C942600E4
:1000440091E0A5E00C94260092BFA3BF98B790FF5F
:10005400FDCFA0E0A3BFB1E0B8BF0895F894C19864
:10006400C098C298C3987894DACFF894C19AC0988B
:10007400C298C3987894D3CFF894C19AC098C29A7E
:10008400C3987894CCCFF894C19AC09AC29AC39A70
:100094000E9422000E9422000E9422000E9422004C
:0E00A40000E0C198C098C298C3987894B8CF75
:00000001FF
