S01700004763634170706C69636174696F6E312E737265635B
S11300000C942A000C9447000C9447000C9447006D
S11300100C9447000C9447000C9447000C94470040
S11300200C9447000C9447000C9447000C94470030
S11300300C9447000C9447000C9447000C94470020
S11300400C9447000C9447000C9447000C94470010
S11300500C94470011241FBECFE5D4E0DEBFCDBF12
S113006010E0A0E6B0E0E4EBF1E002C005900D92F0
S1130070A838B107D9F720E0A8E8B0E001C01D9284
S1130080AA38B207E1F70E9488000C94D8000C94B7
S1130090000018BA12BA089580E090E08830910503
S11300A0A4F5FC01E058FF4F208128BB2091880073
S11300B0309189002115310531F4FC01E858FF4FD6
S11300C0208122BB1AC02130310531F4FC01E059F2
S11300D0FF4F208122BB11C02230310531F4FC01D5
S11300E0E859FF4F208122BB08C02330310529F491
S11300F0FC01E05AFF4F208122BBE3EFF1E031978E
S1130100F1F700C000000196C9CF0E94490008958C
S11301108FEF87BB81BB1ABAC9991DC0C9993EC06C
S1130120809188009091890004972CF010928900A6
S113013010928800F3CF0E944C000E944C000E9451
S11301404C008091880090918900019690938900D9
S113015080938800E3CFC8991FC0C8991FC08091BD
S113016088009091890099233CF483E090E0909377
S1130170890080938800F1CF0E944C000E944C00BB
S11301800E944C008091880090918900019790937F
S1130190890080938800E1CF0E9449002FE986E816
S11301A091E0215080409040E1F700C00000B4CFBE
S10701B0F894FFCFED
S11301B42030383C3C3830200000FF7E3C180000DE
S11301C4040C1C3C3C1C0C040000183C7EFF000086
S10B01D4FEFDFBF7EFDFBF7F26
S9030000FC
