S01700004763634170706C69636174696F6E312E737265635B
S11300000C942A000C943C000C943C000C943C008E
S11300100C943C000C943C000C943C000C943C006C
S11300200C943C000C943C000C943C000C943C005C
S11300300C943C000C943C000C943C000C943C004C
S11300400C943C000C943C000C943C000C943C003C
S11300500C943C0011241FBECFE5D4E0DEBFCDBF1D
S113006020E0A0E6B0E001C01D92A436B207E1F79B
S11300700E944E000C943D020C94000084E487B965
S113008086B1806486B9349BFECF86B1806186B91F
S113009084B195B108958ABD88BD08951ABA8FEFC9
S11300A087BB81BB80E487B983E886B981EA8FBDC9
S11300B08AE08EBD89E087BD83EC86BD1BBC19BC7C
S11300C080E00E943E009093630080936200BC0134
S11300D0990F880B990B0E94440120E030E040E026
S11300E05FE30E94D00120E030E040E853E40E9446
S11300F09F000E940C01709361006093600077235D
S11301008CF488B3806488BB88B38F7788BB809174
S11301106000909161008095909590936100809328
S1130120600006C088B3806888BB88B38F7B88BBB7
S113013080916000909161000E944B00C1CF5058A3
S1130140BB27AA270E94B7000C9496010E9488013D
S113015038F00E948F0120F039F49F3F19F426F4FF
S11301600C9485010EF4E095E7FB0C947F01E92FD4
S11301700E94A70158F3BA1762077307840795070B
S113018020F079F4A6F50C94C9010EF4E0950B2E39
S1130190BA2FA02D0B01B90190010C01CA01A001D5
S11301A01124FF27591B99F0593F50F4503E68F130
S11301B01A16F040A22F232F342F4427585FF3CF71
S11301C0469537952795A795F0405395C9F77EF442
S11301D01F16BA0B620B730B840BBAF09150A1F08B
S11301E0FF0FBB1F661F771F881FC2F70EC0BA0F11
S11301F0621F731F841F48F4879577956795B79599
S1130200F7959E3F08F0B0CF9395880F08F0992793
S1130210EE0F9795879508950E9413016894B11184
S11302200C94CA0108950E94AF0188F09F5798F07A
S1130230B92F9927B751B0F0E1F0660F771F881FE7
S1130240991F1AF0BA95C9F714C0B13091F00E9401
S1130250C901B1E008950C94C901672F782F88274C
S1130260B85F39F0B93FCCF3869577956795B39528
S1130270D9F73EF490958095709561957F4F8F4F97
S11302809F4F0895E89409C097FB3EF4909580959C
S1130290709561957F4F8F4F9F4F9923A9F0F92F48
S11302A096E9BB279395F695879577956795B795C6
S11302B0F111F8CFFAF4BB0F11F460FF1BC06F5FAC
S11302C07F4F8F4F9F4F16C0882311F096E911C0BE
S11302D0772321F09EE8872F762F05C0662371F0DF
S11302E096E8862F70E060E02AF09A95660F771FF3
S11302F0881FDAF7880F9695879597F9089597F9E7
S11303009F6780E870E060E008959FEF80EC0895B7
S113031000240A94161617061806090608950024E0
S11303200A9412161306140605060895092E03945A
S1130330000C11F4882352F0BB0F40F4BF2B11F4CE
S113034060FF04C06F5F7F4F8F4F9F4F089557FD2D
S11303509058440F551F59F05F3F71F04795880F2F
S113036097FB991F61F09F3F79F0879508951216C6
S113037013061406551FF2CF4695F1DF08C0161672
S113038017061806991FF1CF869571056105089423
S11303900895E894BB2766277727CB0197F908953A
S11303A00E94E3010C9496010E94880138F00E9497
S11303B08F0120F0952311F00C947F010C9485019A
S11303C011240C94CA010E94A70170F3959FC1F3F4
S11303D0950F50E0551F629FF001729FBB27F00DEF
S11303E0B11D639FAA27F00DB11DAA1F649F662744
S11303F0B00DA11D661F829F2227B00DA11D621F93
S1130400739FB00DA11D621F839FA00D611D221F4C
S1130410749F3327A00D611D231F849F600D211D30
S1130420822F762F6A2F11249F5750409AF0F1F0B3
S113043088234AF0EE0FFF1FBB1F661F771F881F1C
S113044091505040A9F79E3F510580F00C947F01D4
S11304500C94CA015F3FE4F3983ED4F386957795F4
S11304606795B795F795E7959F5FC1F7FE2B880FC2
S1110470911D9695879597F90895F894FFCFFE
S9030000FC
