:020000020000FC
:100000000FE50DBF04E00EBF0FEF07BB00E001BB23
:10001000809B0C940E0050E00C940800503011F0BE
:100020000C94080051E0C8990C941A000C944C00F0
:100030000C940800B7990C942000C79A0C940800FF
:10004000B6990C942600C69A0C940800B5990C94A5
:100050002C00C59A0C940800B4990C943200C49AF0
:100060000C940800B3990C943800C39A0C940800BF
:10007000B2990C943E00C29A0C940800B1990C9469
:100080004400C19A0C940800B0990C940800C09ADE
:100090000C9408000C940800B09B0C945200C0987B
:1000A0000C940800B19B0C945800C1980C94080063
:1000B000B29B0C945E00C2980C940800B39B0C9405
:1000C0006400C3980C940800B49B0C946A00C49814
:1000D0000C940800B59B0C947000C5980C94080013
:1000E000B69B0C947600C6980C940800B79B0C94B1
:0C00F0000800C7980C9408000C9408004D
:00000001FF
